:1000000012C021C020C01FC01EC01DC01CC01BC00C
:100010001AC019C018C017C016C015C014C013C02C
:1000200012C011C010C011241FBECFE5D2E0DEBF48
:10003000CDBF20E0A0E6B0E001C01D92A636B20719
:10004000E1F702D04BC0DCCF87B3886587BBD4987B
:1000500083E087B987E886B913B8369A3699FECF18
:1000600084B1282F30E0309363002093620095B173
:10007000892F90E0982F88279093650080936400E3
:10008000822B932B90936100809360008B3921E049
:10009000920770F4C39A88B38F7A88BB8FE79AE18E
:1000A00026E0815090402040E1F700C00000D5CF0D
:1000B0008734934070F088B3877E88BBC69A8FE7F9
:1000C0009AE126E0815090402040E1F700C0000016
:1000D000C4CF88B3877B88BBC49ABFCFF894FFCFC7
:00000001FF
